{
  "_format": "hh-sol-artifact-1",
  "contractName": "Transactions",
  "sourceName": "contracts/Transactions.sol",
  "abi": [
    {
      "anonymous": false,
      "inputs": [
        {
          "indexed": true,
          "internalType": "address",
          "name": "from",
          "type": "address"
        },
        {
          "indexed": true,
          "internalType": "address",
          "name": "receiver",
          "type": "address"
        },
        {
          "indexed": false,
          "internalType": "uint256",
          "name": "amount",
          "type": "uint256"
        },
        {
          "indexed": false,
          "internalType": "string",
          "name": "message",
          "type": "string"
        },
        {
          "indexed": false,
          "internalType": "uint256",
          "name": "timestamp",
          "type": "uint256"
        },
        {
          "indexed": false,
          "internalType": "string",
          "name": "keyword",
          "type": "string"
        }
      ],
      "name": "Transfer",
      "type": "event"
    },
    {
      "inputs": [
        {
          "internalType": "address payable",
          "name": "receiver",
          "type": "address"
        },
        {
          "internalType": "uint256",
          "name": "amount",
          "type": "uint256"
        },
        {
          "internalType": "string",
          "name": "message",
          "type": "string"
        },
        {
          "internalType": "string",
          "name": "keyword",
          "type": "string"
        }
      ],
      "name": "addToBlockchain",
      "outputs": [],
      "stateMutability": "nonpayable",
      "type": "function"
    },
    {
      "inputs": [],
      "name": "getAllTransactions",
      "outputs": [
        {
          "components": [
            {
              "internalType": "address",
              "name": "sender",
              "type": "address"
            },
            {
              "internalType": "address",
              "name": "receiver",
              "type": "address"
            },
            {
              "internalType": "uint256",
              "name": "amount",
              "type": "uint256"
            },
            {
              "internalType": "string",
              "name": "message",
              "type": "string"
            },
            {
              "internalType": "uint256",
              "name": "timestamp",
              "type": "uint256"
            },
            {
              "internalType": "string",
              "name": "keyword",
              "type": "string"
            }
          ],
          "internalType": "struct Transactions.TransferStruct[]",
          "name": "",
          "type": "tuple[]"
        }
      ],
      "stateMutability": "view",
      "type": "function"
    },
    {
      "inputs": [],
      "name": "getTransactionCount",
      "outputs": [
        {
          "internalType": "uint256",
          "name": "",
          "type": "uint256"
        }
      ],
      "stateMutability": "view",
      "type": "function"
    },
    {
      "inputs": [
        {
          "internalType": "uint256",
          "name": "",
          "type": "uint256"
        }
      ],
      "name": "transactions",
      "outputs": [
        {
          "internalType": "address",
          "name": "sender",
          "type": "address"
        },
        {
          "internalType": "address",
          "name": "receiver",
          "type": "address"
        },
        {
          "internalType": "uint256",
          "name": "amount",
          "type": "uint256"
        },
        {
          "internalType": "string",
          "name": "message",
          "type": "string"
        },
        {
          "internalType": "uint256",
          "name": "timestamp",
          "type": "uint256"
        },
        {
          "internalType": "string",
          "name": "keyword",
          "type": "string"
        }
      ],
      "stateMutability": "view",
      "type": "function"
    }
  ],
  "bytecode": "0x608060405234801561001057600080fd5b5061104f806100206000396000f3fe608060405234801561001057600080fd5b506004361061004c5760003560e01c806327506f53146100515780632e7700f01461006f5780639ace38c21461008d578063cc2d7ead146100c2575b600080fd5b6100596100de565b60405161006691906108de565b60405180910390f35b610077610321565b604051610084919061090f565b60405180910390f35b6100a760048036038101906100a2919061096a565b61032a565b6040516100b9969594939291906109f0565b60405180910390f35b6100dc60048036038101906100d79190610bd2565b6104c6565b005b60606001805480602002602001604051908101604052809291908181526020016000905b8282101561031857838290600052602060002090600602016040518060c00160405290816000820160009054906101000a900473ffffffffffffffffffffffffffffffffffffffff1673ffffffffffffffffffffffffffffffffffffffff1673ffffffffffffffffffffffffffffffffffffffff1681526020016001820160009054906101000a900473ffffffffffffffffffffffffffffffffffffffff1673ffffffffffffffffffffffffffffffffffffffff1673ffffffffffffffffffffffffffffffffffffffff168152602001600282015481526020016003820180546101eb90610ca0565b80601f016020809104026020016040519081016040528092919081815260200182805461021790610ca0565b80156102645780601f1061023957610100808354040283529160200191610264565b820191906000526020600020905b81548152906001019060200180831161024757829003601f168201915b505050505081526020016004820154815260200160058201805461028790610ca0565b80601f01602080910402602001604051908101604052809291908181526020018280546102b390610ca0565b80156103005780601f106102d557610100808354040283529160200191610300565b820191906000526020600020905b8154815290600101906020018083116102e357829003601f168201915b50505050508152505081526020019060010190610102565b50505050905090565b60008054905090565b6001818154811061033a57600080fd5b90600052602060002090600602016000915090508060000160009054906101000a900473ffffffffffffffffffffffffffffffffffffffff16908060010160009054906101000a900473ffffffffffffffffffffffffffffffffffffffff16908060020154908060030180546103af90610ca0565b80601f01602080910402602001604051908101604052809291908181526020018280546103db90610ca0565b80156104285780601f106103fd57610100808354040283529160200191610428565b820191906000526020600020905b81548152906001019060200180831161040b57829003601f168201915b50505050509080600401549080600501805461044390610ca0565b80601f016020809104026020016040519081016040528092919081815260200182805461046f90610ca0565b80156104bc5780601f10610491576101008083540402835291602001916104bc565b820191906000526020600020905b81548152906001019060200180831161049f57829003601f168201915b5050505050905086565b6000808154809291906104d890610d00565b919050555060016040518060c001604052803373ffffffffffffffffffffffffffffffffffffffff1681526020018673ffffffffffffffffffffffffffffffffffffffff16815260200185815260200184815260200142815260200183815250908060018154018082558091505060019003906000526020600020906006020160009091909190915060008201518160000160006101000a81548173ffffffffffffffffffffffffffffffffffffffff021916908373ffffffffffffffffffffffffffffffffffffffff16021790555060208201518160010160006101000a81548173ffffffffffffffffffffffffffffffffffffffff021916908373ffffffffffffffffffffffffffffffffffffffff16021790555060408201518160020155606082015181600301908161060e9190610ef4565b506080820151816004015560a082015181600501908161062e9190610ef4565b5050508373ffffffffffffffffffffffffffffffffffffffff163373ffffffffffffffffffffffffffffffffffffffff167f416cfa4330a4565f45c2fd2dd4826a83a37443aba2ce6f79477c7355afac35fa858542866040516106949493929190610fc6565b60405180910390a350505050565b600081519050919050565b600082825260208201905092915050565b6000819050602082019050919050565b600073ffffffffffffffffffffffffffffffffffffffff82169050919050565b60006106f9826106ce565b9050919050565b610709816106ee565b82525050565b6000819050919050565b6107228161070f565b82525050565b600081519050919050565b600082825260208201905092915050565b60005b83811015610762578082015181840152602081019050610747565b60008484015250505050565b6000601f19601f8301169050919050565b600061078a82610728565b6107948185610733565b93506107a4818560208601610744565b6107ad8161076e565b840191505092915050565b600060c0830160008301516107d06000860182610700565b5060208301516107e36020860182610700565b5060408301516107f66040860182610719565b506060830151848203606086015261080e828261077f565b91505060808301516108236080860182610719565b5060a083015184820360a086015261083b828261077f565b9150508091505092915050565b600061085483836107b8565b905092915050565b6000602082019050919050565b6000610874826106a2565b61087e81856106ad565b935083602082028501610890856106be565b8060005b858110156108cc57848403895281516108ad8582610848565b94506108b88361085c565b925060208a01995050600181019050610894565b50829750879550505050505092915050565b600060208201905081810360008301526108f88184610869565b905092915050565b6109098161070f565b82525050565b60006020820190506109246000830184610900565b92915050565b6000604051905090565b600080fd5b600080fd5b6109478161070f565b811461095257600080fd5b50565b6000813590506109648161093e565b92915050565b6000602082840312156109805761097f610934565b5b600061098e84828501610955565b91505092915050565b6109a0816106ee565b82525050565b600082825260208201905092915050565b60006109c282610728565b6109cc81856109a6565b93506109dc818560208601610744565b6109e58161076e565b840191505092915050565b600060c082019050610a056000830189610997565b610a126020830188610997565b610a1f6040830187610900565b8181036060830152610a3181866109b7565b9050610a406080830185610900565b81810360a0830152610a5281846109b7565b9050979650505050505050565b6000610a6a826106ce565b9050919050565b610a7a81610a5f565b8114610a8557600080fd5b50565b600081359050610a9781610a71565b92915050565b600080fd5b600080fd5b7f4e487b7100000000000000000000000000000000000000000000000000000000600052604160045260246000fd5b610adf8261076e565b810181811067ffffffffffffffff82111715610afe57610afd610aa7565b5b80604052505050565b6000610b1161092a565b9050610b1d8282610ad6565b919050565b600067ffffffffffffffff821115610b3d57610b3c610aa7565b5b610b468261076e565b9050602081019050919050565b82818337600083830152505050565b6000610b75610b7084610b22565b610b07565b905082815260208101848484011115610b9157610b90610aa2565b5b610b9c848285610b53565b509392505050565b600082601f830112610bb957610bb8610a9d565b5b8135610bc9848260208601610b62565b91505092915050565b60008060008060808587031215610bec57610beb610934565b5b6000610bfa87828801610a88565b9450506020610c0b87828801610955565b935050604085013567ffffffffffffffff811115610c2c57610c2b610939565b5b610c3887828801610ba4565b925050606085013567ffffffffffffffff811115610c5957610c58610939565b5b610c6587828801610ba4565b91505092959194509250565b7f4e487b7100000000000000000000000000000000000000000000000000000000600052602260045260246000fd5b60006002820490506001821680610cb857607f821691505b602082108103610ccb57610cca610c71565b5b50919050565b7f4e487b7100000000000000000000000000000000000000000000000000000000600052601160045260246000fd5b6000610d0b8261070f565b91507fffffffffffffffffffffffffffffffffffffffffffffffffffffffffffffffff8203610d3d57610d3c610cd1565b5b600182019050919050565b60008190508160005260206000209050919050565b60006020601f8301049050919050565b600082821b905092915050565b600060088302610daa7fffffffffffffffffffffffffffffffffffffffffffffffffffffffffffffffff82610d6d565b610db48683610d6d565b95508019841693508086168417925050509392505050565b6000819050919050565b6000610df1610dec610de78461070f565b610dcc565b61070f565b9050919050565b6000819050919050565b610e0b83610dd6565b610e1f610e1782610df8565b848454610d7a565b825550505050565b600090565b610e34610e27565b610e3f818484610e02565b505050565b5b81811015610e6357610e58600082610e2c565b600181019050610e45565b5050565b601f821115610ea857610e7981610d48565b610e8284610d5d565b81016020851015610e91578190505b610ea5610e9d85610d5d565b830182610e44565b50505b505050565b600082821c905092915050565b6000610ecb60001984600802610ead565b1980831691505092915050565b6000610ee48383610eba565b9150826002028217905092915050565b610efd82610728565b67ffffffffffffffff811115610f1657610f15610aa7565b5b610f208254610ca0565b610f2b828285610e67565b600060209050601f831160018114610f5e5760008415610f4c578287015190505b610f568582610ed8565b865550610fbe565b601f198416610f6c86610d48565b60005b82811015610f9457848901518255600182019150602085019450602081019050610f6f565b86831015610fb15784890151610fad601f891682610eba565b8355505b6001600288020188555050505b505050505050565b6000608082019050610fdb6000830187610900565b8181036020830152610fed81866109b7565b9050610ffc6040830185610900565b818103606083015261100e81846109b7565b90509594505050505056fea2646970667358221220b7720377a644762a8264dfe777c8200c30c2c67f90eeeeb46af99aef73e940f664736f6c63430008180033",
  "linkReferences": {},
  "deployedLinkReferences": {}
}